:1000000071C0000086C0000084C0000082C00000F3
:1000100080C000007EC000007CC000007AC00000EC
:1000200078C0000076C0000074C0000072C00000FC
:1000300070C000006EC000006CC000006AC000000C
:1000400068C0000066C0000064C0000062C000001C
:1000500060C000005EC000005CC000005AC000002C
:1000600058C0000056C0000054C0000052C000003C
:1000700050C000004EC000004CC000004AC000004C
:1000800048C0000046C0000044C0000042C000005C
:1000900040C000003EC000003CC000003AC000006C
:1000A00038C0000036C0000034C0000032C000007C
:1000B00030C000002EC000002CC000002AC000008C
:1000C00028C0000026C0000024C0000022C000009C
:1000D00020C000001EC000001CC000001AC00000AC
:1000E00018C0000011241FBECFEFD1E2DEBFCDBF8C
:1000F00000E00CBF12E0A0E0B2E0EEE0FCE000E0C7
:100100000BBF02C007900D92A631B107D9F783D279
:100110007CC576CF8EE030D20BD2E7E0F1E0808173
:100120008F608083E8E0F1E08081806F80830895B4
:10013000E8E0F1E080818F608083809100029091FF
:1001400001028230910529F11CF4019741F06CC045
:1001500083309105C1F1049709F44FC065C0E8E010
:10016000F1E08081877F808380910002909101027D
:10017000019690930102809300022FEF83EF91E0AC
:10018000215080409040E1F700C0000080E090E006
:100190000895E8E0F1E080818B7F80838091000208
:1001A00090910102019690930102809300022FEF3B
:1001B00083EF91E0215080409040E1F700C00000C3
:1001C00081E090E00895E8E0F1E080818D7F808318
:1001D0008091000290910102019690930102809318
:1001E00000022FEF83EF91E0215080409040E1F733
:1001F00000C0000082E090E00895E8E0F1E0808136
:100200008E7F808381E090E09093010280930002D2
:100210002FEF83EF91E0215080409040E1F700C044
:10022000000083E090E0089508958091060184FD28
:1002300010C08FE39CE90197F1F700C000008091A6
:10024000060184FB222720F930E031952195310900
:100250003CC08091060185FD0DC08FE39CE90197AC
:10026000F1F700C000008091060185FF26C02FEF46
:100270003FEF2BC08091060186FD0DC08FE39CE906
:100280000197F1F700C000008091060186FF18C0B9
:100290002FEF3FEF1AC08091060188236CF08FE3A7
:1002A0009CE90197F1F700C00000809106018823C6
:1002B00054F42FEF3FEF09C0089521E030E005C06E
:1002C00022E030E002C023E030E0822F932F089537
:1002D0000F931F93CF93DF93CDB7DEB760970FB621
:1002E000F894DEBF0FBECDBF23DF8C019EDF8F3FB2
:1002F0002FEF9207F1F0000F111F000F111F0E5F7B
:100300001D4FF801E80FF91F80811F928F9382E142
:1003100092E09F938F938E010F5F1F4F1F930F9358
:1003200099D1C8011AD10F900F900F900F900F9094
:100330000F9060960FB6F894DEBF0FBECDBFDF9171
:10034000CF911F910F910895EBE0F1E080818460DF
:100350008083000080818B7F80830895CF93C82F96
:10036000662331F0EBE0F1E080818160808305C09D
:10037000EBE0F1E080818E7F8083EBE0F1E0808133
:100380008D7F8083AAE0B1E08C9188608C938C9102
:1003900080618C938C9180628C938C9180648C931F
:1003A00080818F7B808380818F7D808380818F7E21
:1003B00080838081877F8083CC231CF4808180644C
:1003C0008083C6FF05C0EBE0F1E08081806280831E
:1003D000C5FF05C0EBE0F1E0808180618083C4FF50
:1003E00005C0EBE0F1E0808188608083ADDFEBE069
:1003F000F1E080818F7B808380818F7D808380810D
:100400008F7E80838081877F8083C3FF03C080814C
:1004100080648083C2FF05C0EBE0F1E080818062F0
:100420008083C1FF05C0EBE0F1E0808180618083C3
:10043000C0FF05C0EBE0F1E080818860808384DF4D
:10044000EBE0F1E08081886080838081806180833F
:10045000808180628083808180648083CF910895D1
:10046000882331F0EBE0F1E080818160808305C07A
:10047000EBE0F1E080818E7F8083ABE0B1E08C9196
:1004800082608C93EAE0F1E08081877F80838081C5
:100490008F7E808380818F7D808380818F7B80832E
:1004A0008C9184608C9300008091090183FF02C0CD
:1004B00080E101C080E09091090194FD80629091FB
:1004C000090195FD80649091090196FD8068EBE03B
:1004D000F1E090819B7F90830000908194609083F5
:1004E00000009091090193FD81609091090194FDB4
:1004F00082609091090195FD84609091090196FDBB
:100500008860EBE0F1E090819B7F9083089580E02C
:10051000A7DF8823E4F300C000C080E0A1CF0895E6
:10052000CF93C82FF4DF60E08C2F18DFCF910895B0
:1005300081E0F6CF0895CF93C82FE9DFCA3041F4A8
:10054000803410F080E001C080E48058E9DF03C00F
:1005500061E08C2F03DFCF910895CF93DF93EC01FF
:100560002196FC018081882321F0E5DF89918111AA
:10057000FCCFDF91CF9108951F93CF93DF93182F76
:10058000EAE0F1E080818160808380818260808305
:1005900080818460808380818860808380818061A5
:1005A00080838081806280838081806480838FE902
:1005B0009FE00197F1F700C00000CBE0D1E0888117
:1005C00080618883888188608883BEDE81EE94E0C4
:1005D0000197F1F700C00000B7DE95E19A95F1F7B9
:1005E0000000B2DE85E18A95F1F700008881877FFF
:1005F0008883AADE95E19A95F1F7000088E290DF02
:1006000088E08EDF95DF86E08BDF812F89DFDF9149
:10061000CF911F9108957EDD02D05ADEFECF259A3C
:10062000E1E8F0E0808180618083A0E8B0E08C9117
:1006300082688C9380E29EE490938700809386008A
:1006400088EE93E090938900809388008081826097
:10065000808308950F931F93CF93DF93CDB7DEB7B9
:100660002E970FB6F894DEBF0FBECDBF0E891F893F
:1006700086E08C831A8309838FEF9FE79E838D83A7
:10068000AE01465E5F4F688D798DCE01019610D028
:10069000EF81F885E00FF11F10822E960FB6F894C7
:1006A000DEBF0FBECDBFDF91CF911F910F91089597
:1006B0002F923F924F925F926F927F928F929F9272
:1006C000AF92BF92CF92DF92EF92FF920F931F9360
:1006D000CF93DF93CDB7DEB72B970FB6F894DEBF7D
:1006E0000FBECDBF6C017B018A01FC01178216820F
:1006F000838181FFBFC1CE0101963C01F601938148
:10070000F70193FD859193FF81917F01882309F47F
:10071000ADC1853239F493FD859193FF81917F01BD
:10072000853221F4B60190E0D6D1E8CF912C212C6E
:10073000312CFFE1F315D8F08B3279F038F48032A8
:1007400079F08332A1F4232D20611DC08D3261F038
:10075000803369F4232D216016C0832D8260382EEA
:10076000E32DE4603E2E2AC0F32DF8601DC037FC57
:100770002DC020ED280F2A3040F08E32B9F436FC1F
:1007800075C1232D2064322E19C036FE06C08AE0C2
:10079000989E200D1124922E11C0EAE02E9E200D6D
:1007A0001124222EF32DF0623F2E08C08C3621F446
:1007B000832D8068382E02C0883641F4F70193FDFE
:1007C000859193FF81917F018111B3CF982F9F7DF8
:1007D0009554933028F40C5F1F4F9FE399830DC00D
:1007E000833631F0833771F0833509F055C020C06E
:1007F000F801808189830E5F1F4F88248394912C98
:10080000530112C02801F2E04F0E511CF801A080E4
:10081000B18036FE03C0692D70E002C06FEF7FEF3C
:10082000C5014ED14C018201F32DFF773F2E15C03B
:10083000280122E0420E511CF801A080B18036FE52
:1008400003C0692D70E002C06FEF7FEFC5012DD1AD
:100850004C01F32DF0683F2E820133FC19C0822D2C
:1008600090E088169906A0F4B60180E290E033D1BA
:100870002A94F5CFF50137FC859137FE81915F0110
:10088000B60190E028D121102A9421E0821A910823
:100890008114910479F7E1C0843611F0893639F575
:1008A000F80137FE07C060817181828193810C5FFE
:1008B0001F4F08C060817181072E000C880B990BB7
:1008C0000E5F1F4FF32DFF763F2E97FF09C09095C7
:1008D0008095709561957F4F8F4F9F4FF0683F2EA9
:1008E0002AE030E0A30133D1882E861844C0853732
:1008F00031F4232D2F7EB22E2AE030E025C0932D37
:10090000997FB92E8F36C1F018F4883579F0AEC0D2
:10091000803719F0883721F0A9C0E92FE061BE2E99
:10092000B4FE0DC0FB2DF460BF2E09C034FE0AC01A
:10093000292F2660B22E06C028E030E005C020E155
:1009400030E002C020E132E0F801B7FE07C060816C
:100950007181828193810C5F1F4F06C0608171811C
:1009600080E090E00E5F1F4FA301F1D0882E861823
:10097000FB2DFF773F2E36FE0DC0232D2E7FA22E9E
:10098000891458F434FE0BC032FC09C0832D8E7ECE
:10099000A82E05C0B82CA32C03C0B82C01C0B92CBC
:1009A000A4FE0FC0FE01E80DF11D8081803321F40B
:1009B0009A2D997EA92E09C0A2FE06C0B394B394C5
:1009C00004C08A2D867809F0B394A3FC10C0A0FE61
:1009D00006C0B21480F4280C922C9B180DC0B214DF
:1009E00058F4B60180E290E076D0B394F8CFB21418
:1009F00018F42B1802C0982C212CA4FE0FC0B601AD
:100A000080E390E068D0A2FE16C0A1FC03C088E796
:100A100090E002C088E590E0B6010CC08A2D86788F
:100A200051F0A1FE02C08BE201C080E2A7FC8DE282
:100A3000B60190E050D0891430F4B60180E390E024
:100A40004AD09A94F8CF8A94F301E80DF11D808181
:100A5000B60190E040D08110F6CF222009F44ECEAE
:100A6000B60180E290E037D02A94F7CFF601868174
:100A7000978102C08FEF9FEF2B960FB6F894DEBFE1
:100A80000FBECDBFDF91CF911F910F91FF90EF90DF
:100A9000DF90CF90BF90AF909F908F907F906F909E
:100AA0005F904F903F902F900895FC01059061500A
:100AB00070400110D8F7809590958E0F9F1F089574
:100AC000FC016150704001900110D8F7809590951D
:100AD0008E0F9F1F08950F931F93CF93DF93FB01FA
:100AE000238121FD03C08FEF9FEF2CC022FF16C092
:100AF00046815781248135814217530744F4A081F0
:100B0000B1819D012F5F3F4F318320838C932681DC
:100B100037812F5F3F4F3783268314C08B01EC0151
:100B2000FB010084F185E02D1995892BE1F6D801B0
:100B300016968D919C911797019617969C938E937C
:100B40001697CE01DF91CF911F910F910895FA0171
:100B5000AA27283051F1203181F1E8946F936E7FFC
:100B60006E5F7F4F8F4F9F4FAF4FB1E03ED0B4E0ED
:100B70003CD0670F781F891F9A1FA11D680F791F2E
:100B80008A1F911DA11D6A0F711D811D911DA11D3F
:100B900020D009F468943F912AE0269F112430194F
:100BA000305D3193DEF6CF010895462F4770405DEA
:100BB0004193B3E00FD0C9F7F6CF462F4F70405D99
:100BC0004A3318F0495D31FD4052419302D0A9F7F4
:100BD000EACFB4E0A6959795879577956795BA95EE
:100BE000C9F700976105710508959B01AC010A2EB4
:100BF00006945795479537952795BA95C9F7620F8B
:0E0C0000731F841F951FA01D0895F894FFCF49
:100C0E0001003134372A32353830333639234142F8
:060C1E00434425630000C1
:00000001FF
