S0160000496E74656C6967656E74654875732E7372656366
S11300009EC00000BBC00000B9C00000B7C0000023
S1130010B5C00000B3C00000B1C00000AFC0000014
S1130020ADC00000ABC00000A9C00000A7C0000024
S1130030A5C00000A3C00000A1C000009FC0000034
S11300409DC000009BC0000099C0000097C0000044
S113005095C0000093C0000091C000008FC0000054
S11300608DC000008BC0000089C0000087C0000064
S113007085C0000083C0000081C000007FC0000074
S11300807DC000007BC0000079C0000077C0000084
S113009075C0000073C0000071C000006FC0000094
S11300A06DC000006BC0000069C0000067C00000A4
S11300B065C0000063C0000061C000005FC00000B4
S11300C05DC000005BC0000059C0000057C00000C4
S11300D055C0000053C0000051C000004FC00000D4
S11300E04DC0000008000000BE922449123EABAA95
S11300F0AA2ABECDCCCC4C3E00000080BEABAAAA3E
S1130100AA3E00000000BF000000803F0000000085
S113011000084178D3BB4387D1133D190E3CC3BDBE
S11301204282AD2B3E68EC8276BED98FE1A93E4C6B
S113013080EFFFBE01C4FF7F3F00000000001124D8
S11301401FBECFEFD1E2DEBFCDBF00E00CBF12E097
S1130150A0E0B2E0E8EBFDE000E00BBF02C00790D6
S11301600D92A035B107D9F722E0A0E5B2E001C0B5
S11301701D92A336B207E1F773D21CC641CF8EE0BD
S113018020D2FBD1E7E0F1E080818F608083E8E05A
S1130190F1E08081806F80830895E8E0F1E0808160
S11301A08F608083809100029091010282309105DA
S11301B029F11CF4019741F06CC083309105C1F121
S11301C0049709F44FC065C0E8E0F1E08081877FBF
S11301D08083809100029091010201969093010224
S11301E0809300022FEF83EF91E0215080409040F4
S11301F0E1F700C0000080E090E00895E8E0F1E05D
S113020080818B7F8083809100029091010201960E
S113021090930102809300022FEF83EF91E021502D
S113022080409040E1F700C0000081E090E0089534
S1130230E8E0F1E080818D7F8083809100029091DD
S11302400102019690930102809300022FEF83EF45
S113025091E0215080409040E1F700C0000082E02E
S113026090E00895E8E0F1E080818E7F808381E072
S113027090E090930102809300022FEF83EF91E0CE
S1130280215080409040E1F700C0000083E090E0FE
S1130290089508958091060184FD13C02FEF83EF24
S11302A091E0215080409040E1F700C0000080912F
S11302B0060184FB222720F930E03195219531098C
S11302C045C08091060185FD10C02FEF83EF91E0BA
S11302D0215080409040E1F700C000008091060169
S11302E085FF2CC02FEF3FEF31C08091060186FDC2
S11302F010C02FEF83EF91E0215080409040E1F750
S113030000C000008091060186FF1BC02FEF3FEF65
S11303101DC080910601882384F02FEF83EF91E0C4
S1130320215080409040E1F700C000008091060118
S1130330882354F42FEF3FEF09C0089521E030E003
S113034005C022E030E002C023E030E0822F932F8A
S11303500895CF93DF9321DFEC019CDF8F3F2FEFD4
S1130360920751F0CC0FDD1FCC0FDD1FCE5FDD4FA8
S1130370C80FD91F888100C0DF91CF910895E9DFAC
S1130380813419F0823419F00895C6C108958FC2DA
S11303900895EBE0F1E08081846080830000808137
S11303A08B7F80830895CF93C82F662331F0EBE0D1
S11303B0F1E080818160808305C0EBE0F1E0808121
S11303C08E7F8083EBE0F1E080818D7F8083AAE0E3
S11303D0B1E08C9188608C938C9180618C938C912A
S11303E080628C938C9180648C9380818F7B8083DA
S11303F080818F7D808380818F7E80838081877FD1
S11304008083CC231CF4808180648083C6FF05C074
S1130410EBE0F1E0808180628083C5FF05C0EBE002
S1130420F1E0808180618083C4FF05C0EBE0F1E0EE
S1130430808188608083ADDFEBE0F1E080818F7B99
S1130440808380818F7D808380818F7E8083808183
S1130450877F8083C3FF03C0808180648083C2FF61
S113046005C0EBE0F1E0808180628083C1FF05C0BC
S1130470EBE0F1E0808180618083C0FF05C0EBE0A8
S1130480F1E080818860808384DFEBE0F1E08081AB
S113049088608083808180618083808180628083A2
S11304A0808180648083CF910895882331F0EBE0CC
S11304B0F1E080818160808305C0EBE0F1E0808120
S11304C08E7F8083ABE0B1E08C9182608C93EAE014
S11304D0F1E08081877F808380818F7E808380812B
S11304E08F7D808380818F7B80838C9184608C93CB
S11304F000008091090183FF02C080E101C080E017
S11305009091090194FD80629091090195FD8064A8
S11305109091090196FD8068EBE0F1E090819B7F6A
S11305209083000090819460908300009091090171
S113053093FD81609091090194FD8260909109017D
S113054095FD84609091090196FD8860EBE0F1E0EF
S113055090819B7F9083089580E0A7DF8823E4F354
S113056000C000C080E0A1CF0895CF93C82FF4DF6E
S113057060E08C2F18DFCF91089581E0F6CF0895C5
S1130580CF93C82FE9DFCA3041F4803410F080E003
S113059001C080E48058E9DF03C061E08C2F03DFF1
S11305A0CF910895CF93DF93EC012196FC018081D4
S11305B0882321F0E5DF89918111FCCFDF91CF9170
S11305C008951F93CF93DF93182FEAE0F1E0808121
S11305D08160808380818260808380818460808365
S11305E08081886080838081806180838081806253
S11305F080838081806480838FE99FE00197F1F795
S113060000C00000CBE0D1E08881806188838881CC
S113061088608883BEDE81EE94E00197F1F700C024
S11306200000B7DE95E19A95F1F70000B2DE85E1AE
S11306308A95F1F700008881877F8883AADE95E197
S11306409A95F1F7000088E290DF88E08EDF95DF6D
S113065086E08BDF812F89DFDF91CF911F91089591
S11306608EDD04D070D08BDE88D0FDCF6D9AE1E9A9
S1130670F0E0808180618083E0E9F0E0808182683D
S1130680808380E29EE4909387008093860088EEC6
S113069093E090939D0080939C00E1E8F0E08081DA
S11306A0826080830895ECE9F0E080ED97E0918327
S11306B0808380819181883E934080F08FE39FE125
S11306C00197F1F700C00000808191810197918327
S11306D0808380819181883E934080F7089588EEDD
S11306E08093B30080919C0090919D00813D974040
S11306F090F4ECE9F0E08FE39FE10197F1F700C09B
S11307000000808191810196918380838081918111
S1130710813D974080F308959091500281E08927AC
S113072080935002882349F0BEDF27DF82E192E004
S113073039DF80915002811105C0D1DF1EDF81E2D3
S113074092E030CF089580E480937C0081E0809330
S11307507E0087EC80937A00E0E8F0E08081886A8C
S11307608083808181608083E1E8F0E08081836020
S1130770808384B1806E84B90895CF92DF92EF9222
S1130780FF9280917A0086FD8DC06091780070910F
S1130790790080E090E0A5D19B01AC0160E070E0BD
S11307A080E894E40AD120E030E040E85FE3A0D0A0
S11307B020E030E44CE156E467D226D26B017C01A0
S11307C06093590270935A0280935B0290935C0287
S11307D029E537E44CEB53E357D2A701960154D2F1
S11307E023E73FE745E759E384D0A70196014CD2BC
S11307F02BEE3FEF43E95AE37CD09B01AC0160E070
S113080070E080E89FE3D9D060935402709355025E
S1130810809356029093570223E333E948E853E464
S113082067D033D17093620260936102EAE7F0E02B
S11308308081806480832FEF81EE94E0215080409A
S11308409040E1F700C0000080915102882351F1EB
S113085080916102909162024F9770F08FEF90E067
S1130860909389008093880010928B0010928A00E4
S113087090938D0080938C0080916102909162022C
S11308804E9780F484E690E09093890080938800EA
S11308908FEF90E090938B0080938A0010928D00EC
S11308A010928C00FF90EF90DF90CF90089590917C
S11308B0510281E0892780935102882341F05DDE53
S11308C082E392E06FDE80915102811110C0109298
S11308D089001092880010928B0010928A00109266
S11308E08D0010928C0049DE80E492E05BCE089586
S11308F05058BB27AA270ED048C139D130F03ED179
S113090020F031F49F3F11F41EF42EC10EF4E09553
S1130910E7FB24C1E92F4AD180F3BA1762077307B2
S11309208407950718F071F49EF562C10EF4E09502
S11309300B2EBA2FA02D0B01B90190010C01CA0195
S1130940A0011124FF27591B99F0593F50F4503E40
S113095068F11A16F040A22F232F342F4427585F32
S1130960F3CF469537952795A795F0405395C9F74A
S11309707EF41F16BA0B620B730B840BBAF0915002
S1130980A1F0FF0FBB1F661F771F881FC2F70EC0A1
S1130990BA0F621F731F841F48F487957795679574
S11309A0B795F7959E3F08F0B3CF9395880F08F05D
S11309B09927EE0F9795879508950CD0E6C0DED061
S11309C040F0D5D030F021F45F3F19F0C7C0511189
S11309D010C1CAC0EBD098F39923C9F35523B1F3DE
S11309E0951B550BBB27AA2762177307840738F09A
S11309F09F5F5F4F220F331F441FAA1FA9F333D0F9
S1130A000E2E3AF0E0E830D091505040E695001CAC
S1130A10CAF729D0FE2F27D0660F771F881FBB1F68
S1130A20261737074807AB07B0E809F0BB0B802D42
S1130A30BF01FF2793585F4F2AF09E3F510568F08E
S1130A408DC0D7C05F3FECF3983EDCF38695779575
S1130A506795B795F7959F5FC9F7880F911D969590
S1130A60879597F90895E1E0660F771F881FBB1FEC
S1130A70621773078407BA0720F0621B730B840B99
S1130A80BA0BEE1F88F7E095089598D088F09F5729
S1130A9090F0B92F9927B751A0F0D1F0660F771FC6
S1130AA0881F991F1AF0BA95C9F712C0B13081F0A6
S1130AB09FD0B1E008959CC0672F782F8827B85F36
S1130AC039F0B93FCCF3869577956795B395D9F707
S1130AD03EF490958095709561957F4F8F4F9F4F11
S1130AE00895E89409C097FB3EF49095809570951D
S1130AF061957F4F8F4F9F4F9923A9F0F92F96E966
S1130B00BB279395F695879577956795B795F111DA
S1130B10F8CFFAF4BB0F11F460FF1BC06F5F7F4F77
S1130B208F4F9F4F16C0882311F096E911C0772389
S1130B3021F09EE8872F762F05C0662371F096E892
S1130B40862F70E060E02AF09A95660F771F881F61
S1130B50DAF7880F9695879597F9089597F99F671F
S1130B6080E870E060E008959FEF80EC0895002431
S1130B700A941616170618060906089500240A94FE
S1130B8012161306140605060895092E0394000C84
S1130B9011F4882352F0BB0F40F4BF2B11F460FF13
S1130BA004C06F5F7F4F8F4F9F4F089557FD90583C
S1130BB0440F551F59F05F3F71F04795880F97FB1D
S1130BC0991F61F09F3F79F08795089512161306D7
S1130BD01406551FF2CF4695F1DF08C01616170606
S1130BE01806991FF1CF869571056105089408953B
S1130BF0E894BB2766277727CB0197F908950EF071
S1130C00A6C0B2CF6894AACFD9DFC8F39923D1F391
S1130C10C6F3DF93CF931F930F93FF92C92FDD2762
S1130C2088232AF02197660F771F881FDAF720E0C0
S1130C3030E040E85FEB9FE3883920F0803E30F0FD
S1130C4021968F7756DEE4EEF0E003C052DEE1E158
S1130C50F1E08BD08B01BE01EC01FB2E6F577109C3
S1130C607595771F880B990B3EDF28E132E741E346
S1130C705FE316D0AF2D9801AE01FF900F911F9145
S1130C80CF91DF9147DE81CF0BD07FCF70DF28F08B
S1130C9075DF18F0952309F061CF66CF1124A9CF31
S1130CA085DFA0F3959FD1F3950F50E0551F629F08
S1130CB0F001729FBB27F00DB11D639FAA27F00DB1
S1130CC0B11DAA1F649F6627B00DA11D661F829FD8
S1130CD02227B00DA11D621F739FB00DA11D621FBD
S1130CE0839FA00D611D221F749F3327A00D611DDA
S1130CF0231F849F600D211D822F762F6A2F1124BC
S1130D009F5750408AF0E1F088234AF0EE0FFF1F0E
S1130D10BB1F661F771F881F91505040A9F79E3F45
S1130D20510570F01BCF65CF5F3FECF3983EDCF3C9
S1130D30869577956795B795F795E7959F5FC1F782
S1130D40FE2B880F911D9695879597F908959F3FDF
S1130D5031F0915020F4879577956795B795880F72
S1130D60911D9695879597F90895DF93CF931F93D7
S1130D700F93FF92EF92DF927B018C01689405C080
S1130D80DA2EEF018DDFFE01E894A59125913591CE
S1130D9045915591AEF3EF01BDDDFE019701A80128
S1130DA0DA9479F7DF90EF90FF900F911F91CF9134
S10B0DB0DF910895F894FFCFD0
S1130DB801003134372A3235383033363923414249
S1130DC8434457696E646F77206973206F70656E4A
S1130DD80057696E646F7720697320636C6F73655D
S1130DE8640056656E74696C61746F72204F4E00AE
S1130DF856656E74696C61746F72204F46460000C4
S9030000FC
