:1000000071C000008EC000008CC000008AC00000DB
:1000100088C0000086C0000084C0000082C00000CC
:1000200080C000007EC000007CC000007AC00000DC
:1000300078C0000076C0000074C0000072C00000EC
:1000400070C000006EC000006CC000006AC00000FC
:1000500068C0000066C0000064C0000062C000000C
:1000600060C000005EC000005CC000005AC000001C
:1000700058C0000056C0000054C0000052C000002C
:1000800050C000004EC000004CC000004AC000003C
:1000900048C0000046C0000044C0000042C000004C
:1000A00040C000003EC000003CC000003AC000005C
:1000B00038C0000036C0000034C0000032C000006C
:1000C00030C000002EC000002CC000002AC000007C
:1000D00028C0000026C0000024C0000022C000008C
:1000E00020C0000011241FBECFEFD1E2DEBFCDBF84
:1000F00000E00CBF12E0A0E0B2E0ECEEF6E000E0C1
:100100000BBF02C007900D92A233B107D9F722E0CE
:10011000A2E3B2E001C01D92A433B207E1F78DD291
:10012000E3C26ECF8EE03AD215D2E7E0F1E08081F3
:100130008F608083E8E0F1E08081806F80830895A4
:10014000E8E0F1E080818F608083809100029091EF
:1001500001028230910529F11CF4019741F06CC035
:1001600083309105C1F1049709F44FC065C0E8E000
:10017000F1E08081877F808380910002909101026D
:10018000019690930102809300022FEF83EF91E09C
:10019000215080409040E1F700C0000080E090E0F6
:1001A0000895E8E0F1E080818B7F808380910002F8
:1001B00090910102019690930102809300022FEF2B
:1001C00083EF91E0215080409040E1F700C00000B3
:1001D00081E090E00895E8E0F1E080818D7F808308
:1001E0008091000290910102019690930102809308
:1001F00000022FEF83EF91E0215080409040E1F723
:1002000000C0000082E090E00895E8E0F1E0808125
:100210008E7F808381E090E09093010280930002C2
:100220002FEF83EF91E0215080409040E1F700C034
:10023000000083E090E0089508958091060184FD18
:1002400013C02FEF83EF91E0215080409040E1F701
:1002500000C000008091060184FB222720F930E0D5
:1002600031952195310945C08091060185FD10C069
:100270002FEF83EF91E0215080409040E1F700C0E4
:1002800000008091060185FF2CC02FEF3FEF31C0A9
:100290008091060186FD10C02FEF83EF91E0215081
:1002A00080409040E1F700C000008091060186FF89
:1002B0001BC02FEF3FEF1DC080910601882384F003
:1002C0002FEF83EF91E0215080409040E1F700C094
:1002D000000080910601882354F42FEF3FEF09C0FE
:1002E000089521E030E005C022E030E002C023E0C4
:1002F00030E0822F932F0895CF93DF9321DFEC011D
:100300009CDF8F3F2FEF920751F0CC0FDD1FCC0FFA
:10031000DD1FCE5FDD4FC80FD91F888100C0DF9180
:10032000CF910895E9DF813419F08234C1F0089546
:100330009091330281E0892780933302882349F02A
:100340009BD108D182E192E01AD1809133028111D0
:100350000CC0AED1FFD081E292E011C1089590911E
:10036000320281E08927809332020895EBE0F1E0C8
:10037000808184608083000080818B7F80830895EA
:10038000CF93C82F662331F0EBE0F1E080818160EC
:10039000808305C0EBE0F1E080818E7F8083EBE01D
:1003A000F1E080818D7F8083AAE0B1E08C9188604C
:1003B0008C938C9180618C938C9180628C938C91C6
:1003C00080648C9380818F7B808380818F7D80830C
:1003D00080818F7E80838081877F8083CC231CF403
:1003E000808180648083C6FF05C0EBE0F1E08081FE
:1003F00080628083C5FF05C0EBE0F1E08081806111
:100400008083C4FF05C0EBE0F1E0808188608083D9
:10041000ADDFEBE0F1E080818F7B808380818F7D99
:10042000808380818F7E80838081877F8083C3FFEC
:1004300003C0808180648083C2FF05C0EBE0F1E0EF
:10044000808180628083C1FF05C0EBE0F1E08081A4
:1004500080618083C0FF05C0EBE0F1E080818860AF
:10046000808384DFEBE0F1E080818860808380819D
:1004700080618083808180628083808180648083CA
:10048000CF910895882331F0EBE0F1E08081816025
:10049000808305C0EBE0F1E080818E7F8083ABE05C
:1004A000B1E08C9182608C93EAE0F1E08081877FFB
:1004B000808380818F7E808380818F7D8083808117
:1004C0008F7B80838C9184608C93000080910901E4
:1004D00083FF02C080E101C080E09091090194FD9A
:1004E00080629091090195FD80649091090196FDCB
:1004F0008068EBE0F1E090819B7F90830000908129
:100500009460908300009091090193FD8160909127
:10051000090194FD82609091090195FD846090919C
:10052000090196FD8860EBE0F1E090819B7F90836C
:10053000089580E0A7DF8823E4F300C000C080E0D6
:10054000A1CF0895CF93C82FF4DF60E08C2F18DF80
:10055000CF91089581E0F6CF0895CF93C82FE9DFBA
:10056000CA3041F4803410F080E001C080E480584B
:10057000E9DF03C061E08C2F03DFCF910895CF93B3
:10058000DF93EC012196FC018081882321F0E5DFD7
:1005900089918111FCCFDF91CF9108951F93CF9363
:1005A000DF93182FEAE0F1E0808181608083808111
:1005B0008260808380818460808380818860808382
:1005C000808180618083808180628083808180647B
:1005D00080838FE99FE00197F1F700C00000CBE036
:1005E000D1E0888180618883888188608883BEDECD
:1005F00081EE94E00197F1F700C00000B7DE95E1CD
:100600009A95F1F70000B2DE85E18A95F1F70000D6
:100610008881877F8883AADE95E19A95F1F70000AB
:1006200088E290DF88E08EDF95DF86E08BDF812F28
:1006300089DFDF91CF911F91089574DD02D072DEC2
:10064000FECF259AE1E8F0E0808180618083A0E818
:10065000B0E08C9182688C9380E29EE49093870056
:100660008093860088EE93E09093890080938800C1
:100670008081826080830895E8E8F0E080ED97E073
:100680009183808380819181883E934080F08FE3C5
:100690009FE10197F1F700C00000808191810197EF
:1006A0009183808380819181883E934080F7089573
:1006B000E8E8F0E088EE93E0918380838081918187
:1006C000813D974080F48FE39FE10197F1F700C0EF
:1006D0000000808191810196918380838081918146
:0C06E000813D974080F30895F894FFCF0F
:1006EC0001003134372A3235383033363923414220
:1006FC00434457696E646F77206973206F70656E21
:10070C000057696E646F7720697320636C6F736533
:02071C00640077
:00000001FF
